02000LUCIA FERREIRA                000100000
00123JOAO SILVA                    000010000
00789CARLOS PEREIRA                000005000
00234ANA COSTA                     000003000
01000PAULO LIMA                    000000800
00456MARIA SOUZA                   000025000